{
  "_format": "hh-sol-artifact-1",
  "contractName": "Voting",
  "sourceName": "contracts/Voting.sol",
  "abi": [
    {
      "anonymous": false,
      "inputs": [
        {
          "indexed": true,
          "internalType": "uint256",
          "name": "pollId",
          "type": "uint256"
        },
        {
          "indexed": false,
          "internalType": "string",
          "name": "question",
          "type": "string"
        },
        {
          "indexed": false,
          "internalType": "string[]",
          "name": "options",
          "type": "string[]"
        }
      ],
      "name": "PollCreated",
      "type": "event"
    },
    {
      "anonymous": false,
      "inputs": [
        {
          "indexed": true,
          "internalType": "uint256",
          "name": "pollId",
          "type": "uint256"
        },
        {
          "indexed": true,
          "internalType": "address",
          "name": "voter",
          "type": "address"
        },
        {
          "indexed": false,
          "internalType": "uint256",
          "name": "optionIndex",
          "type": "uint256"
        }
      ],
      "name": "Voted",
      "type": "event"
    },
    {
      "inputs": [
        {
          "internalType": "string",
          "name": "_question",
          "type": "string"
        },
        {
          "internalType": "string[]",
          "name": "_options",
          "type": "string[]"
        }
      ],
      "name": "createPoll",
      "outputs": [],
      "stateMutability": "nonpayable",
      "type": "function"
    },
    {
      "inputs": [
        {
          "internalType": "uint256",
          "name": "_pollId",
          "type": "uint256"
        }
      ],
      "name": "getPoll",
      "outputs": [
        {
          "internalType": "uint256",
          "name": "id",
          "type": "uint256"
        },
        {
          "internalType": "string",
          "name": "question",
          "type": "string"
        },
        {
          "internalType": "string[]",
          "name": "options",
          "type": "string[]"
        },
        {
          "internalType": "uint256[]",
          "name": "voteCounts",
          "type": "uint256[]"
        }
      ],
      "stateMutability": "view",
      "type": "function"
    },
    {
      "inputs": [
        {
          "internalType": "uint256",
          "name": "",
          "type": "uint256"
        },
        {
          "internalType": "address",
          "name": "",
          "type": "address"
        }
      ],
      "name": "hasVoted",
      "outputs": [
        {
          "internalType": "bool",
          "name": "",
          "type": "bool"
        }
      ],
      "stateMutability": "view",
      "type": "function"
    },
    {
      "inputs": [],
      "name": "pollCount",
      "outputs": [
        {
          "internalType": "uint256",
          "name": "",
          "type": "uint256"
        }
      ],
      "stateMutability": "view",
      "type": "function"
    },
    {
      "inputs": [
        {
          "internalType": "uint256",
          "name": "",
          "type": "uint256"
        }
      ],
      "name": "polls",
      "outputs": [
        {
          "internalType": "uint256",
          "name": "id",
          "type": "uint256"
        },
        {
          "internalType": "string",
          "name": "question",
          "type": "string"
        },
        {
          "internalType": "bool",
          "name": "exists",
          "type": "bool"
        }
      ],
      "stateMutability": "view",
      "type": "function"
    },
    {
      "inputs": [
        {
          "internalType": "uint256",
          "name": "_pollId",
          "type": "uint256"
        },
        {
          "internalType": "uint256",
          "name": "_optionIndex",
          "type": "uint256"
        }
      ],
      "name": "vote",
      "outputs": [],
      "stateMutability": "nonpayable",
      "type": "function"
    }
  ],
  "bytecode": "0x608060405234801561001057600080fd5b506116a4806100206000396000f3fe608060405234801561001057600080fd5b50600436106100625760003560e01c80631a8cbcaa14610067578063438596321461009a5780637e3d71c3146100ca5780639207891d146100e6578063ac2f007414610104578063b384abef14610136575b600080fd5b610081600480360381019061007c9190610a13565b610152565b6040516100919493929190610ca9565b60405180910390f35b6100b460048036038101906100af9190610d61565b6103a5565b6040516100c19190610dbc565b60405180910390f35b6100e460048036038101906100df9190610ff2565b6103d4565b005b6100ee61057d565b6040516100fb919061106a565b60405180910390f35b61011e60048036038101906101199190610a13565b610583565b60405161012d93929190611085565b60405180910390f35b610150600480360381019061014b91906110c3565b610642565b005b600060608060606001600086815260200190815260200160002060040160009054906101000a900460ff166101bc576040517f08c379a00000000000000000000000000000000000000000000000000000000081526004016101b39061114f565b60405180910390fd5b600060016000878152602001908152602001600020905080600001548160010182600201836003018280546101f09061119e565b80601f016020809104026020016040519081016040528092919081815260200182805461021c9061119e565b80156102695780601f1061023e57610100808354040283529160200191610269565b820191906000526020600020905b81548152906001019060200180831161024c57829003601f168201915b5050505050925081805480602002602001604051908101604052809291908181526020016000905b8282101561033d5783829060005260206000200180546102b09061119e565b80601f01602080910402602001604051908101604052809291908181526020018280546102dc9061119e565b80156103295780601f106102fe57610100808354040283529160200191610329565b820191906000526020600020905b81548152906001019060200180831161030c57829003601f168201915b505050505081526020019060010190610291565b5050505091508080548060200260200160405190810160405280929190818152602001828054801561038e57602002820191906000526020600020905b81548152602001906001019080831161037a575b505050505090509450945094509450509193509193565b60026020528160005260406000206020528060005260406000206000915091509054906101000a900460ff1681565b6001815111610418576040517f08c379a000000000000000000000000000000000000000000000000000000000815260040161040f9061121b565b60405180910390fd5b6000805490506000825167ffffffffffffffff81111561043b5761043a610de1565b5b6040519080825280602002602001820160405280156104695781602001602082028036833780820191505090505b5090506040518060a0016040528083815260200185815260200184815260200182815260200160011515815250600160008481526020019081526020016000206000820151816000015560208201518160010190816104c891906113e7565b5060408201518160020190805190602001906104e59291906108a2565b5060608201518160030190805190602001906105029291906108fb565b5060808201518160040160006101000a81548160ff021916908315150217905550905050817f4be3f505bf50604bde92e6940e2df40c36f90cb362640413d520080ca12eabb285856040516105589291906114b9565b60405180910390a26000808154809291906105729061151f565b919050555050505050565b60005481565b60016020528060005260406000206000915090508060000154908060010180546105ac9061119e565b80601f01602080910402602001604051908101604052809291908181526020018280546105d89061119e565b80156106255780601f106105fa57610100808354040283529160200191610625565b820191906000526020600020905b81548152906001019060200180831161060857829003601f168201915b5050505050908060040160009054906101000a900460ff16905083565b6001600083815260200190815260200160002060040160009054906101000a900460ff166106a5576040517f08c379a000000000000000000000000000000000000000000000000000000000815260040161069c9061114f565b60405180910390fd5b6002600083815260200190815260200160002060003373ffffffffffffffffffffffffffffffffffffffff1673ffffffffffffffffffffffffffffffffffffffff16815260200190815260200160002060009054906101000a900460ff1615610743576040517f08c379a000000000000000000000000000000000000000000000000000000000815260040161073a906115b3565b60405180910390fd5b6001600083815260200190815260200160002060020180549050811061079e576040517f08c379a00000000000000000000000000000000000000000000000000000000081526004016107959061161f565b60405180910390fd5b6001600083815260200190815260200160002060030181815481106107c6576107c561163f565b5b9060005260206000200160008154809291906107e19061151f565b919050555060016002600084815260200190815260200160002060003373ffffffffffffffffffffffffffffffffffffffff1673ffffffffffffffffffffffffffffffffffffffff16815260200190815260200160002060006101000a81548160ff0219169083151502179055503373ffffffffffffffffffffffffffffffffffffffff16827f1abe610cf2bf87e57dcc1181fcf5ac0934e843d8344ab9eed6e86c799f62585e83604051610896919061106a565b60405180910390a35050565b8280548282559060005260206000209081019282156108ea579160200282015b828111156108e95782518290816108d991906113e7565b50916020019190600101906108c2565b5b5090506108f79190610948565b5090565b828054828255906000526020600020908101928215610937579160200282015b8281111561093657825182559160200191906001019061091b565b5b509050610944919061096c565b5090565b5b80821115610968576000818161095f9190610989565b50600101610949565b5090565b5b8082111561098557600081600090555060010161096d565b5090565b5080546109959061119e565b6000825580601f106109a757506109c6565b601f0160209004906000526020600020908101906109c5919061096c565b5b50565b6000604051905090565b600080fd5b600080fd5b6000819050919050565b6109f0816109dd565b81146109fb57600080fd5b50565b600081359050610a0d816109e7565b92915050565b600060208284031215610a2957610a286109d3565b5b6000610a37848285016109fe565b91505092915050565b610a49816109dd565b82525050565b600081519050919050565b600082825260208201905092915050565b60005b83811015610a89578082015181840152602081019050610a6e565b60008484015250505050565b6000601f19601f8301169050919050565b6000610ab182610a4f565b610abb8185610a5a565b9350610acb818560208601610a6b565b610ad481610a95565b840191505092915050565b600081519050919050565b600082825260208201905092915050565b6000819050602082019050919050565b600082825260208201905092915050565b6000610b2782610a4f565b610b318185610b0b565b9350610b41818560208601610a6b565b610b4a81610a95565b840191505092915050565b6000610b618383610b1c565b905092915050565b6000602082019050919050565b6000610b8182610adf565b610b8b8185610aea565b935083602082028501610b9d85610afb565b8060005b85811015610bd95784840389528151610bba8582610b55565b9450610bc583610b69565b925060208a01995050600181019050610ba1565b50829750879550505050505092915050565b600081519050919050565b600082825260208201905092915050565b6000819050602082019050919050565b610c20816109dd565b82525050565b6000610c328383610c17565b60208301905092915050565b6000602082019050919050565b6000610c5682610beb565b610c608185610bf6565b9350610c6b83610c07565b8060005b83811015610c9c578151610c838882610c26565b9750610c8e83610c3e565b925050600181019050610c6f565b5085935050505092915050565b6000608082019050610cbe6000830187610a40565b8181036020830152610cd08186610aa6565b90508181036040830152610ce48185610b76565b90508181036060830152610cf88184610c4b565b905095945050505050565b600073ffffffffffffffffffffffffffffffffffffffff82169050919050565b6000610d2e82610d03565b9050919050565b610d3e81610d23565b8114610d4957600080fd5b50565b600081359050610d5b81610d35565b92915050565b60008060408385031215610d7857610d776109d3565b5b6000610d86858286016109fe565b9250506020610d9785828601610d4c565b9150509250929050565b60008115159050919050565b610db681610da1565b82525050565b6000602082019050610dd16000830184610dad565b92915050565b600080fd5b600080fd5b7f4e487b7100000000000000000000000000000000000000000000000000000000600052604160045260246000fd5b610e1982610a95565b810181811067ffffffffffffffff82111715610e3857610e37610de1565b5b80604052505050565b6000610e4b6109c9565b9050610e578282610e10565b919050565b600067ffffffffffffffff821115610e7757610e76610de1565b5b610e8082610a95565b9050602081019050919050565b82818337600083830152505050565b6000610eaf610eaa84610e5c565b610e41565b905082815260208101848484011115610ecb57610eca610ddc565b5b610ed6848285610e8d565b509392505050565b600082601f830112610ef357610ef2610dd7565b5b8135610f03848260208601610e9c565b91505092915050565b600067ffffffffffffffff821115610f2757610f26610de1565b5b602082029050602081019050919050565b600080fd5b6000610f50610f4b84610f0c565b610e41565b90508083825260208201905060208402830185811115610f7357610f72610f38565b5b835b81811015610fba57803567ffffffffffffffff811115610f9857610f97610dd7565b5b808601610fa58982610ede565b85526020850194505050602081019050610f75565b5050509392505050565b600082601f830112610fd957610fd8610dd7565b5b8135610fe9848260208601610f3d565b91505092915050565b60008060408385031215611009576110086109d3565b5b600083013567ffffffffffffffff811115611027576110266109d8565b5b61103385828601610ede565b925050602083013567ffffffffffffffff811115611054576110536109d8565b5b61106085828601610fc4565b9150509250929050565b600060208201905061107f6000830184610a40565b92915050565b600060608201905061109a6000830186610a40565b81810360208301526110ac8185610aa6565b90506110bb6040830184610dad565b949350505050565b600080604083850312156110da576110d96109d3565b5b60006110e8858286016109fe565b92505060206110f9858286016109fe565b9150509250929050565b7f506f6c6c20646f6573206e6f7420657869737400000000000000000000000000600082015250565b6000611139601383610a5a565b915061114482611103565b602082019050919050565b600060208201905081810360008301526111688161112c565b9050919050565b7f4e487b7100000000000000000000000000000000000000000000000000000000600052602260045260246000fd5b600060028204905060018216806111b657607f821691505b6020821081036111c9576111c861116f565b5b50919050565b7f4174206c656173742074776f206f7074696f6e73207265717569726564000000600082015250565b6000611205601d83610a5a565b9150611210826111cf565b602082019050919050565b60006020820190508181036000830152611234816111f8565b9050919050565b60008190508160005260206000209050919050565b60006020601f8301049050919050565b600082821b905092915050565b60006008830261129d7fffffffffffffffffffffffffffffffffffffffffffffffffffffffffffffffff82611260565b6112a78683611260565b95508019841693508086168417925050509392505050565b6000819050919050565b60006112e46112df6112da846109dd565b6112bf565b6109dd565b9050919050565b6000819050919050565b6112fe836112c9565b61131261130a826112eb565b84845461126d565b825550505050565b600090565b61132761131a565b6113328184846112f5565b505050565b5b818110156113565761134b60008261131f565b600181019050611338565b5050565b601f82111561139b5761136c8161123b565b61137584611250565b81016020851015611384578190505b61139861139085611250565b830182611337565b50505b505050565b600082821c905092915050565b60006113be600019846008026113a0565b1980831691505092915050565b60006113d783836113ad565b9150826002028217905092915050565b6113f082610a4f565b67ffffffffffffffff81111561140957611408610de1565b5b611413825461119e565b61141e82828561135a565b600060209050601f831160018114611451576000841561143f578287015190505b61144985826113cb565b8655506114b1565b601f19841661145f8661123b565b60005b8281101561148757848901518255600182019150602085019450602081019050611462565b868310156114a457848901516114a0601f8916826113ad565b8355505b6001600288020188555050505b505050505050565b600060408201905081810360008301526114d38185610aa6565b905081810360208301526114e78184610b76565b90509392505050565b7f4e487b7100000000000000000000000000000000000000000000000000000000600052601160045260246000fd5b600061152a826109dd565b91507fffffffffffffffffffffffffffffffffffffffffffffffffffffffffffffffff820361155c5761155b6114f0565b5b600182019050919050565b7f416c726561647920766f74656400000000000000000000000000000000000000600082015250565b600061159d600d83610a5a565b91506115a882611567565b602082019050919050565b600060208201905081810360008301526115cc81611590565b9050919050565b7f496e76616c6964206f7074696f6e000000000000000000000000000000000000600082015250565b6000611609600e83610a5a565b9150611614826115d3565b602082019050919050565b60006020820190508181036000830152611638816115fc565b9050919050565b7f4e487b7100000000000000000000000000000000000000000000000000000000600052603260045260246000fdfea2646970667358221220fc61d6ba5cd6c61e35d98978019e50b89619aebe4c83a7d7ef39a6f172e966f764736f6c63430008180033",
  "linkReferences": {},
  "deployedLinkReferences": {}
}